:100000000C945E000C9486000C9486000C94860080
:100010000C9486000C9486000C9486000C94A40525
:100020000C9486000C9486000C9486000C94860038
:100030000C9486000C9486000C9486000C94860028
:100040000C947E060C9486000C944C060C942606A8
:100050000C9486000C9486000C9486000C94860008
:100060000C9486000C948600000000080002010039
:100070000003040700000000000000000200000070
:1000800000250028002B0000000000240027002A83
:100090000004040404040404040202020202020331
:1000A000030303030301020408102040800102043B
:1000B00008102001020408102000C80611241FBEE9
:1000C000CFEFD8E0DEBFCDBF11E0A0E0B1E0E6E2C7
:1000D000F9E102C005900D92A637B107D9F722E0E9
:1000E000A6E7B1E001C01D92AA3DB207E1F710E01A
:1000F000CEE5D0E004C02197FE010E94280BCD354B
:10010000D107C9F70E9438080C94910C0C94000098
:1001100090E0FC01EB55FF4F2491FC01EF56FF4F9F
:100120008491882399F090E0880F991FFC01E9578A
:10013000FF4FA591B491FC01E358FF4F8591949135
:100140008FB7F894EC91E22BEC938FBF0895E5E91B
:10015000F1E0A089B18982E08C93A485B5851C92D9
:10016000A685B7858FEC8C93108EA489B58986E01F
:100170008C93A289B3898C9180618C93A289B38975
:100180008C9188608C93A289B3898C9180688C93C0
:100190000288F389E02D80818F7D808308958830E7
:1001A00091052CF497FF05C080E090E002C087E045
:1001B00090E0683071052CF477FF05C060E070E0D6
:1001C00002C067E070E023E0660F771F2A95E1F731
:1001D000860F971FFC01EC56FD4F408308950F9347
:1001E0001F93FC018FB7F894009191011091920137
:1001F00020919301309194018FBF84819581A681D4
:10020000B781800F911FA21FB31F0081118122812E
:100210003381801B910BA20BB30B84839583A68340
:10022000B7832FB7F8948091910190919201A0919A
:100230009301B09194012FBF80839183A283B383F4
:1002400084819581A681B78184179507A607B70792
:1002500030F0148215821682178281E001C080E09E
:100260001F910F9108954F925F926F927F928F929C
:100270009F92AF92BF92CF92DF92EF92FF921F9325
:10028000CF93DF9320914D01293021F02F3F09F0CA
:1002900009C204C0ECE7F0E0149172C029E0209399
:1002A0004D01ECE7F0E014911F3F09F4FBC1113060
:1002B00009F1123009F441C0111162C014BC15BC1F
:1002C00024B5226024BD25B5216025BDEAE9F0E012
:1002D000E491F0E0EE0FFF1FE358FF4F25913491BA
:1002E0003093840120938301EEEAF0E0E491E093FF
:1002F000820148C0109280001092810020918100FC
:10030000286020938100209181002160209381004A
:10031000EAE9F0E0E491F0E0EE0FFF1FE358FF4F51
:10032000259134913093810120938001EEEAF0E031
:10033000E491E0937F0111E025C01092B00010928B
:10034000B1002091B00022602093B0002091B10054
:1003500021602093B100EAE9F0E0E491F0E0EE0FD3
:10036000FF1FE358FF4F2591349130937E01209376
:100370007D01EEEAF0E0E491E0937C0112E002C03E
:1003800017FD90C1EC0189E00E9488004E01A12C6C
:10039000B12C812F8D7F09F0B6C060E072E18AE751
:1003A00090E0A50194010E94F50A29013A01690132
:1003B0007A0121E0C21AD108E108F1088FEFC816CE
:1003C000D104E104F10409F008F44BC060E472E4E4
:1003D0008FE090E0A50194010E94F50A69017A017D
:1003E00081E0C81AD108E108F108123001F52FEFB9
:1003F000C216D104E104F10409F008F451C160E926
:1004000070ED83E090E0A50194010E94F50A690176
:100410007A0181E0C81AD108E108F1082FEFC2166D
:10042000D104E104F10409F0C0F593E065C08FEF59
:10043000C816D104E104F104B1F0A8F068E478EE44
:1004400081E090E0A50194010E94F50A69017A011A
:1004500081E0C81AD108E108F108112309F4C8C0E5
:1004600016C191E001C092E0112391F045C0D30183
:10047000C2012AE0B595A795979587952A95D1F75A
:100480006C017D0121E0C21AD108E108F10895E074
:1004900085B5887F982B95BD65C068E478EE81E0CE
:1004A00090E0A50194010E94F50A69017A0181E0BA
:1004B000C81AD108E108F1082FEFC216D104E104EF
:1004C000F10409F008F492C064E274EF80E090E077
:1004D000A50194010E94F50A69017A0181E0C81A18
:1004E000D108E108F1082FEFC216D104E104F104AC
:1004F00011F008F09FC095E08091B100887F982BA3
:100500009093B1002FC060E072E18AE790E0A5010E
:1005100094010E94F50A69017A0181E0C81AD108A4
:10052000E108F108C114D10421E0E206F10488F0E9
:1005300068E478EE81E090E0A50194010E94F50A5C
:1005400069017A0181E0C81AD108E108F10893E055
:1005500001C091E0113031F480918100887F892BB6
:10056000809381009E01220F331FA1E2B0E00E9420
:10057000820C28EE33E040E050E00E94600C113025
:1005800099F0123019F111118DC0C7BC20938D0163
:1005900030938E0140938F015093900180916E00B3
:1005A000826080936E007EC0D0928900C0928800E5
:1005B0002093890130938A0140938B0150938C01E1
:1005C00080916F00826080936F006CC0C092B30016
:1005D00020938501309386014093870150938801D1
:1005E000809170008260809370005CC094E084CF42
:1005F0008FEFC816D104E104F104D1F0C8F062E134
:100600007AE780E090E0A50194010E94F50A690173
:100610007A0181E0C81AD108E108F1082FEFC2166B
:10062000D104E104F10411F008F021CF94E030CFBF
:1006300093E02ECF62E17AE780E090E0A50194019B
:100640000E94F50A69017A0181E0C81AD108E1081F
:10065000F1082FEFC216D104E104F104B1F0A8F0C3
:10066000D301C2015AE0B595A795979587955A95FC
:10067000D1F76C017D0121E0C21AD108E108F1082F
:10068000112309F404CF97E037CF96E0EDCE8FEF3A
:10069000C816D104E104F10409F060F694E0E4CE58
:1006A00092E02ACFDF91CF911F91FF90EF90DF90E2
:1006B000CF90BF90AF909F908F907F906F905F9002
:1006C0004F900895CF92DF92EF92FF920F931F9376
:1006D000CF93DF936C017A018B01C0E0D0E0CE159F
:1006E000DF0589F0D8016D918D01D601ED91FC9166
:1006F0000190F081E02DC6010995892B11F47E014E
:1007000002C02196ECCFC701DF91CF911F910F91CD
:10071000FF90EF90DF90CF900895FC01918D828D36
:10072000981761F0828DDF01A80FB11D5D968C9145
:10073000928D9F5F9F73928F90E008958FEF9FEF50
:100740000895FC01918D828D981731F0828DE80F0C
:10075000F11D858D90E008958FEF9FEF0895FC01C6
:10076000918D228D892F90E0805C9F4F821B910993
:100770008F739927089585E991E00E94AF0321E0E6
:10078000892B09F420E0822F0895FC01848DDF017C
:10079000A80FB11DA35ABF4F2C91848D90E00196F4
:1007A0008F739927848FA689B7892C93A089B189E3
:1007B0008C9180648C93938D848D981306C00288ED
:1007C000F389E02D80818F7D80830895EF92FF92E1
:1007D0000F931F93CF93DF93EC0181E0888F9B8D64
:1007E0008C8D981305C0E889F989808185FD24C026
:1007F000F62E0B8D10E00F5F1F4F0F731127E02EA9
:100800008C8DE8120CC00FB607FCFACFE889F98985
:10081000808185FFF5CFCE010E94C503F1CF8B8D7E
:10082000FE01E80FF11DE35AFF4FF0820B8FEA89BA
:10083000FB898081806207C0EE89FF896083E88937
:10084000F98980818064808381E090E0DF91CF919D
:100850001F910F91FF90EF900895CF93DF93EC01DC
:10086000888D8823C9F0EA89FB89808185FD05C0D0
:10087000A889B9898C9186FD0FC00FB607FCF5CF0A
:10088000808185FFF2CFA889B9898C9185FFEDCF52
:10089000CE010E94C503E7CFDF91CF91089580E09C
:1008A00090E0892B29F00E94BB0381110C94000079
:1008B000089590E0FC01E859FF4F3491FC01EB559D
:1008C000FF4F2491FC01EF56FF4FE491EE2309F412
:1008D0003BC0332339F1333091F038F43130A9F093
:1008E000323001F584B58F7D12C0373091F0383049
:1008F000A1F03430B9F4809180008F7D03C08091E5
:1009000080008F77809380000DC084B58F7784BD81
:1009100009C08091B0008F7703C08091B0008F7DB7
:100920008093B000F0E0EE0FFF1FE358FF4FA5915A
:10093000B4918FB7F894EC91611103C020952E23E8
:1009400001C02E2B2C938FBF08958E3008F08E504F
:100950008770806480937C0080917A0080648093AB
:100960007A0080917A0086FDFCCF809178002091FA
:10097000790090E0922B08953FB7F8948091770129
:1009800090917801A0917901B0917A0126B5A89B48
:1009900005C02F3F19F00196A11DB11D3FBFBA2F11
:1009A000A92F982F8827820F911DA11DB11DBC0171
:1009B000CD0142E0660F771F881F991F4A95D1F736
:1009C00008958F929F92AF92BF92CF92DF92EF9253
:1009D000FF926B017C010E94BC044B015C01C114BD
:1009E000D104E104F104F1F00E94BC04DC01CB016C
:1009F00088199909AA09BB09883E9340A105B10548
:100A000070F321E0C21AD108E108F10888EE880EDF
:100A100083E0981EA11CB11CC114D104E104F104AF
:100A200019F7DDCFFF90EF90DF90CF90BF90AF90A0
:100A30009F908F9008952F923F924F925F926F9266
:100A40007F928F929F92AF92BF92CF92DF92EF925E
:100A5000FF920F931F93CF93DF9300D0CDB7DEB7F4
:100A60008C0149832A83660F771FF801EA5AFF4FEA
:100A7000E080F180EE0CFF1CF801CF01801B910B90
:100A80008E159F0514F41192F8CF8981F801E60FB5
:100A9000F71F81838A818083580184E5A80EB11CE9
:100AA00060E0F50180810E945904E00EF11E4801CA
:100AB000F2E58F0E911C380180E5680E711CC701AC
:100AC000801B910B1816190624F5F701C2907F01BF
:100AD000F4013080F301208087E0482E512CD12C86
:100AE000B601042C02C0759567950A94E2F761700F
:100AF0007727822D0E94590461E0832D0E945904BA
:100B000060E0832D0E945904F1E04F1A510840F72C
:100B1000D6CF61E0F50180810F900F90DF91CF91EA
:100B20001F910F91FF90EF90DF90CF90BF90AF900B
:100B30009F908F907F906F905F904F903F902F90FD
:100B40000C9459040E945B0C1F920F920FB60F92E7
:100B500011242F933F934F935F936F937F938F93C2
:100B60009F93AF93BF93EF93FF93809185019091F3
:100B70008601A0918701B0918801892B8A2B8B2B4C
:100B800059F180917C01E0917D01F0917E0190818D
:100B9000892780838091850190918601A0918701AA
:100BA000B0918801181619061A061B060CF03DC0F4
:100BB0008091850190918601A0918701B091880173
:100BC0000197A109B1098093850190938601A093B3
:100BD0008701B093880129C080914D01ECE7F0E0D6
:100BE000E4919FEF90934D01E130B9F098F0E2303D
:100BF000C9F4909170009D7F9093700091E0909364
:100C0000B0009091B100987F94609093B1001092E1
:100C1000B30008C010926E0005C090916F009D7FD8
:100C200090936F0060E00E945904FF91EF91BF9193
:100C3000AF919F918F917F916F915F914F913F9174
:100C40002F910F900FBE0F901F9018951F920F922B
:100C50000FB60F9211242F933F934F935F936F938F
:100C60007F938F939F93AF93BF93EF93FF9385E908
:100C700091E00E94C503FF91EF91BF91AF919F91C9
:100C80008F917F916F915F914F913F912F910F9035
:100C90000FBE0F901F9018951F920F920FB60F92D4
:100CA00011242F938F939F93EF93FF93E091A501CE
:100CB000F091A6018081E091AB01F091AC0182FD41
:100CC00012C090818091AE018F5F8F732091AF0130
:100CD000821751F0E091AE01F0E0EB56FE4F958F98
:100CE0008093AE0101C08081FF91EF919F918F9120
:100CF0002F910F900FBE0F901F9018951F920F927B
:100D00000FB60F9211242F933F938F939F93AF931E
:100D1000BF938091910190919201A0919301B09124
:100D200094013091760123E0230F2D3720F40196B2
:100D3000A11DB11D05C026E8230F0296A11DB11DFE
:100D4000209376018093910190939201A093930157
:100D5000B09394018091770190917801A0917901ED
:100D6000B0917A010196A11DB11D809377019093F6
:100D70007801A0937901B0937A01BF91AF919F91CF
:100D80008F913F912F910F900FBE0F901F9018954C
:100D90008F929F92AF92BF92CF92DF92EF92FF928B
:100DA0000F931F93CF93DF931092980110929701A6
:100DB00088EE93E0A0E0B0E08093990190939A01CF
:100DC000A0939B01B0939C0188E591E090939601DC
:100DD0008093950185EC90E09093A2018093A1010E
:100DE00084EC90E09093A4018093A30180EC90E0C8
:100DF0009093A6018093A50181EC90E09093A801C7
:100E00008093A70182EC90E09093AA018093A901BE
:100E100086EC90E09093AC018093AB011092AE0110
:100E20001092AF011092B0011092B10110923802ED
:100E30001092390210923A0210923B0210923C0238
:100E400010923D0210923E0210923F021092400218
:100E500010924102109242021092430210924402F8
:100E6000109245021092460210924702E4E9F2E025
:100E700080E4DF011D928A95E9F788E590E00E9401
:100E80002E0BEC018C01005B1F4F9CE0A92EB12CB6
:100E9000F801B182A0824E01F2E58F0E911C8BE029
:100EA00090E0D4018D939C936E01B4E5CB0ED11CE0
:100EB0008AE090E0F601918380837E01F6E5EF0EF3
:100EC000F11C81E090E0D7018D939C938CE00E940F
:100ED0008800F40180810E948800D6018C910E94D4
:100EE000880061E0F60180810E945904D801AD922A
:100EF000BC92FE0170961192E017F107E1F75E01D6
:100F000000E010E0D7018D919C91081719070CF0B3
:100F100048C020E04FE0B801CE010E941B0517FD3C
:100F20000CC0F701808191810817190734F427E07C
:100F30004BE0B801CE010E941B0520E049E0B8015A
:100F4000CE010E941B0517FD26C0D7018D919C91F3
:100F500008171907A4F4CC24C394D12CF501EC0D87
:100F6000FD1D178620E04C2DB801CE010E941B0507
:100F7000BFEFCB1ADB0AE9E0CE16D10479F7F7010F
:100F8000808191810817190734F420E04CE0B80102
:100F9000CE010E941B050F5F1F4FF8E0AF0EB11C82
:100FA000B1CFD093D502C093D402181619063CF4E1
:100FB00021E04CE060E070E0CE010E941B058091D2
:100FC000D4029091D502FC01EA5AFF4F2081318171
:100FD0001216130634F420E04AE060E070E00E944C
:100FE0001B05109293021092920287E00E948800E3
:100FF00089E00E94880010928A0210928B0210925F
:101000008C0210928D0210928E0210928F0210921A
:10101000900210929102109282021092830210921A
:10102000840210928502109286021092870210921A
:1010300088021092890210927A0210927B0210921A
:101040007C0210927D0210927E0210927F0210921A
:10105000800210928102DF91CF911F910F91FF903A
:10106000EF90DF90CF90BF90AF909F908F900895BA
:10107000789484B5826084BD84B5816084BD85B573
:10108000826085BD85B5816085BD80916E0081607F
:1010900080936E0010928100809181008260809325
:1010A0008100809181008160809381008091800027
:1010B0008160809380008091B10084608093B10052
:1010C0008091B00081608093B00080917A0084604C
:1010D00080937A0080917A00826080937A00809178
:1010E0007A00816080937A0080917A008068809392
:1010F0007A001092C100109276021092770210923C
:1011000078021092790210923402109235021092F5
:1011100036021092370260ED77E080E090E00E94A6
:10112000E10485E991E090937502809374020E9436
:10113000A7002FB7F8948091910190919201A0910E
:101140009301B09194012FBF8093340290933502A4
:10115000A0933602B0933702809174029091750289
:10116000DC01ED91FC910280F381E02D41E150E042
:1011700064E671E009956AE070E080E090E00E942A
:10118000E10481E0809348020E94A7002224239476
:10119000312C32E0E32EF12C43E0C42ED12C56E06A
:1011A000A52EB12C4CE850E060E070E08AE792E0B8
:1011B0000E94EF00882309F446C080917B018130B2
:1011C00009F041C06FC1809106019091070191958E
:1011D0008195910990930701809306018091040104
:1011E000909105019E01280F391F2830310538F0F4
:1011F0009195819591099093050180930401009147
:10120000060110910701C401800F911F97FDBCC119
:1012100008970CF09AC12091490130914A018091C0
:10122000040190910501820F931F90934A018093CE
:1012300049018091060190910701880E991E9092B4
:101240004C0180924B0140E550E060E070E082E8A4
:1012500092E00E94EF00882309F450C080E00E94D1
:10126000A50464E670E00E94E10A70939302609323
:1012700092026530710509F441C08091020190919C
:101280000301209100013091010165307105ECF4FA
:10129000019690930301809302012F5F3F4F30939B
:1012A000010120930001059734F085E090E09093D0
:1012B0000301809302012730310504F187E090E0BB
:1012C000909301018093000119C00197909303014D
:1012D00080930201215031093093010120930001D4
:1012E0001816190624F010920301109202012330FF
:1012F000310524F4F0920101E092000180917B011C
:10130000811123C081E00E94A50464E670E00E9480
:10131000E10A70939302609392026630710564F063
:1013200030920501209204013092070120920601BB
:1013300081E080937B0109C08091020190910301BB
:10134000019690934A018093490141E250E060E0A8
:1013500070E08AE892E00E94EF00882309F4F2C06E
:1013600004E912E0980180E090E0F901E80FF91F2C
:101370001082019688309105C1F7285F3F4F92E0B7
:10138000243D390781F799E0892E91E0992E612C4F
:10139000712CC0E0D0E0F401EC0FFD1F80818130A2
:1013A00011F441E001C040E0B301CE010E94CF0042
:1013B0002196C830D10579F7AFEF6A1A7A0AB8E0FA
:1013C0008B0E911C88E06816710419F760914B012F
:1013D00070914C0141E08091490190914A010E9435
:1013E000CF00C09102018C2F90E02091000130913C
:1013F0000101281739073CF041E067E070E00E94E6
:10140000CF00CF5FF0CFC0E0D0E0812C912C7C2EBC
:101410007394F801E80DF91D20818091D402909118
:10142000D502FC01EA5AFF4F213099F42081318125
:10143000121613063CF5FC01EC0FFD1F408920E855
:1014400030E0082C02C0359527950A94E2F7242B4A
:1014500013C02081318112161306A4F420E830E075
:10146000082C02C0359527950A94E2F72095FC01D7
:10147000EC0FFD1F30892323208B472D60E070E0A7
:101480000E941B059FEF891A990AA8E08A16910409
:1014900009F0BFCF2196085F1F4FC830D10509F072
:1014A000B4CF50C080904B0190904C01C091490145
:1014B000D0914A01F40183E0EE0FFF1F8A95E1F716
:1014C000EC0FFD1FE75FFE4F8081813009F086CE73
:1014D00082E080831091080111501093080186E08A
:1014E00091E00E94330111116ECE10927B01D092D7
:1014F0004A01C0924901B0924C01A0924B01F09276
:101500000301E092020184E090E090930101809356
:10151000000129E031E041E080E090E0F901E80FCE
:10152000F91F5081523009F44083019688309105AB
:10153000A9F7285F3F4FB1E029343B0769F782E103
:10154000809308010E944F042DCE409002015090DC
:101550000301C415D50504F16090000170900101EC
:101560006C167D06CCF08EEE91E00E943301C4151E
:10157000D50511F4219704C0C615D70529F4219685
:10158000D0934A01C0934901119501951109109317
:101590000701009306013FCE10927B01D0924A01D1
:1015A000C0924901B0924C01A0924B01F09203010C
:1015B000E092020184E090E09093010180930001A9
:1015C000C1CF97FB072E16F4009407D077FD09D002
:1015D0000E94140B07FC05D03EF4909581959F4F17
:1015E0000895709561957F4F0895052E97FB1EF421
:1015F00000940E940C0B57FD07D00E94600C07FC62
:1016000003D04EF40C940C0B5095409530952195D9
:101610003F4F4F4F5F4F089590958095709561951E
:101620007F4F8F4F9F4F0895AA1BBB1B51E107C0EF
:10163000AA1FBB1FA617B70710F0A61BB70B881F62
:10164000991F5A95A9F780959095BC01CD010895F1
:10165000EE0FFF1F0590F491E02D0994CF93DF93D7
:101660008230910510F482E090E0E091D802F09190
:10167000D90220E030E0C0E0D0E0309711F14081A5
:10168000518148175907C0F04817590761F4828102
:101690009381209719F09B838A832BC09093D90262
:1016A0008093D80226C02115310519F0421753073F
:1016B00018F49A01BE01DF01EF010280F381E02DF1
:1016C000DCCF2115310509F1281B390B24303105F8
:1016D00090F412968D919C9113976115710521F0EC
:1016E000FB019383828304C09093D9028093D80234
:1016F000FD01329644C0FD01E20FF31F81939193E7
:10170000225031092D933C933AC02091D60230915A
:10171000D702232B41F42091500130915101309395
:10172000D7022093D60220914E0130914F0121150E
:10173000310541F42DB73EB740915201509153010C
:10174000241B350BE091D602F091D702E217F30784
:10175000A0F42E1B3F0B2817390778F0AC014E5F21
:101760005F4F2417350748F04E0F5F1F5093D70285
:101770004093D6028193919302C0E0E0F0E0CF0164
:10178000DF91CF9108950F931F93CF93DF9300972D
:1017900009F48CC0FC013297138212820091D802A6
:1017A0001091D9020115110581F420813181820F38
:1017B000931F2091D6023091D7022817390779F567
:1017C000F093D702E093D60271C0D80140E050E018
:1017D000AE17BF0750F412962D913C911397AD01AF
:1017E0002115310509F1D901F3CF9D01DA013383C8
:1017F000228360817181860F971F8217930769F496
:10180000EC0128813981260F371F2E5F3F4F31832E
:1018100020838A819B8193838283452B29F4F093D3
:10182000D902E093D80242C01396FC93EE9312972C
:10183000ED01499159919E01240F351FE217F307DD
:1018400071F480819181840F951F029611969C936B
:101850008E938281938113969C938E931297E0E0EE
:10186000F0E0D80112968D919C911397009719F092
:10187000F8018C01F6CF8D919C9198012E5F3F4F1E
:10188000820F931F2091D6023091D7022817390773
:1018900069F4309729F41092D9021092D80202C04C
:1018A000138212821093D7020093D602DF91CF9158
:1018B0001F910F91089581E090E0F8940C94910CA1
:1018C000A1E21A2EAA1BBB1BFD010DC0AA1FBB1F44
:1018D000EE1FFF1FA217B307E407F50720F0A21BB6
:1018E000B30BE40BF50B661F771F881F991F1A9423
:1018F00069F760957095809590959B01AC01BD014D
:10190000CF010895A29FB001B39FC001A39F700DA6
:10191000811D1124911DB29F700D811D1124911DF7
:061920000895F894FFCFCA
:101926000400020001000100120000000000000097
:101936000000010101010101000001010101010195
:10194600000001010101010100000000000000008B
:101956000000000000000000000000000000000081
:1019660000000000000000000003000600FF000069
:10197600DA02800000000000E6036203AF038D0375
:10198600A1032D04564D4450565F317C315F564DB0
:061996004450560D0A004A
:00000001FF
